{
  "contractName": "ConvertLib",
  "abi": [
    {
      "constant": false,
      "inputs": [
        {
          "name": "amount",
          "type": "uint256"
        },
        {
          "name": "conversionRate",
          "type": "uint256"
        }
      ],
      "name": "convert",
      "outputs": [
        {
          "name": "convertedAmount",
          "type": "uint256"
        }
      ],
      "payable": false,
      "stateMutability": "nonpayable",
      "type": "function"
    }
  ],
  "bytecode": "0x60dc61002f600b82828239805160001a6073146000811461001f57610021565bfe5b5030600052607381538281f30073000000000000000000000000000000000000000030146080604052600436106056576000357c0100000000000000000000000000000000000000000000000000000000900463ffffffff16806396e4ee3d14605b575b600080fd5b818015606657600080fd5b50608d600480360381019080803590602001909291908035906020019092919050505060a3565b6040518082815260200191505060405180910390f35b60008183029050929150505600a165627a7a72305820c31e80c2251657ac90a6f97a0bc72aabe947d53c1b2ebe22e2af54f032ad17eb0029",
  "source": "pragma solidity ^0.4.26;\nlibrary ConvertLib{\n\tfunction convert(uint amount,uint conversionRate) returns (uint convertedAmount)\n\t{\n\t\treturn amount * conversionRate;\n\t}\n}",
  "sourcePath": "/home/samrito/Documents/GO/BlockChain/Lab6/lab8/contracts/ConvertLib.sol",
  "compiler": {
    "name": "solc",
    "version": "0.4.26+commit.4563c3fc.Emscripten.clang"
  },
  "schemaVersion": "3.4.3",
  "updatedAt": "2021-11-23T11:44:46.267Z",
  "networkType": "ethereum",
  "devdoc": {
    "methods": {}
  },
  "userdoc": {
    "methods": {}
  }
}