{
  "contractName": "Enrollment",
  "abi": [
    {
      "constant": true,
      "inputs": [
        {
          "name": "",
          "type": "uint256"
        }
      ],
      "name": "conferences",
      "outputs": [
        {
          "name": "title",
          "type": "string"
        },
        {
          "name": "detail",
          "type": "string"
        },
        {
          "name": "limitation",
          "type": "uint256"
        },
        {
          "name": "current",
          "type": "uint256"
        },
        {
          "name": "isFull",
          "type": "bool"
        }
      ],
      "payable": false,
      "stateMutability": "view",
      "type": "function"
    },
    {
      "constant": true,
      "inputs": [],
      "name": "administrator",
      "outputs": [
        {
          "name": "",
          "type": "address"
        }
      ],
      "payable": false,
      "stateMutability": "view",
      "type": "function"
    },
    {
      "inputs": [],
      "payable": false,
      "stateMutability": "nonpayable",
      "type": "constructor"
    },
    {
      "anonymous": false,
      "inputs": [
        {
          "indexed": false,
          "name": "",
          "type": "string"
        },
        {
          "indexed": false,
          "name": "",
          "type": "string"
        }
      ],
      "name": "NewConference",
      "type": "event"
    },
    {
      "anonymous": false,
      "inputs": [
        {
          "indexed": false,
          "name": "",
          "type": "string"
        }
      ],
      "name": "ConferenceExpire",
      "type": "event"
    },
    {
      "anonymous": false,
      "inputs": [
        {
          "indexed": false,
          "name": "",
          "type": "string"
        }
      ],
      "name": "MyNewConference",
      "type": "event"
    },
    {
      "constant": false,
      "inputs": [
        {
          "name": "_username",
          "type": "string"
        }
      ],
      "name": "signUp",
      "outputs": [
        {
          "name": "",
          "type": "string"
        }
      ],
      "payable": false,
      "stateMutability": "nonpayable",
      "type": "function"
    },
    {
      "constant": false,
      "inputs": [
        {
          "name": "trustee",
          "type": "address"
        }
      ],
      "name": "delegate",
      "outputs": [],
      "payable": false,
      "stateMutability": "nonpayable",
      "type": "function"
    },
    {
      "constant": false,
      "inputs": [
        {
          "name": "_title",
          "type": "string"
        }
      ],
      "name": "enroll",
      "outputs": [
        {
          "name": "",
          "type": "string"
        }
      ],
      "payable": false,
      "stateMutability": "nonpayable",
      "type": "function"
    },
    {
      "constant": false,
      "inputs": [
        {
          "name": "_title",
          "type": "string"
        },
        {
          "name": "_username",
          "type": "string"
        }
      ],
      "name": "enrollFor",
      "outputs": [
        {
          "name": "",
          "type": "string"
        }
      ],
      "payable": false,
      "stateMutability": "nonpayable",
      "type": "function"
    },
    {
      "constant": false,
      "inputs": [
        {
          "name": "_title",
          "type": "string"
        },
        {
          "name": "_detail",
          "type": "string"
        },
        {
          "name": "_limitation",
          "type": "uint256"
        }
      ],
      "name": "newConference",
      "outputs": [
        {
          "name": "",
          "type": "string"
        }
      ],
      "payable": false,
      "stateMutability": "nonpayable",
      "type": "function"
    },
    {
      "constant": true,
      "inputs": [],
      "name": "queryConfList",
      "outputs": [
        {
          "name": "",
          "type": "string[]"
        },
        {
          "name": "",
          "type": "string[]"
        }
      ],
      "payable": false,
      "stateMutability": "view",
      "type": "function"
    },
    {
      "constant": true,
      "inputs": [],
      "name": "queryMyConf",
      "outputs": [
        {
          "name": "",
          "type": "string[]"
        }
      ],
      "payable": false,
      "stateMutability": "view",
      "type": "function"
    }
  ],
  "bytecode": "0x608060405234801561001057600080fd5b50336000806101000a81548173ffffffffffffffffffffffffffffffffffffffff021916908373ffffffffffffffffffffffffffffffffffffffff160217905550611fb2806100606000396000f300608060405260043610610099576000357c0100000000000000000000000000000000000000000000000000000000900463ffffffff168063312e1d291461009e5780635c19a95c146100ca57806361f57261146100f357806367b09cdb1461013057806379fe9a9a1461016d578063adcfb4fc146101ae578063bf3d6af8146101eb578063f53d0a8e14610216578063fa936afa14610241575b600080fd5b3480156100aa57600080fd5b506100b361027e565b6040516100c1929190611d00565b60405180910390f35b3480156100d657600080fd5b506100f160048036036100ec91908101906119d0565b6104de565b005b3480156100ff57600080fd5b5061011a60048036036101159190810190611aa6565b610607565b6040516101279190611d37565b60405180910390f35b34801561013c57600080fd5b50610157600480360361015291908101906119f9565b610771565b6040516101649190611d37565b60405180910390f35b34801561017957600080fd5b50610194600480360361018f9190810190611b25565b610b91565b6040516101a5959493929190611d90565b60405180910390f35b3480156101ba57600080fd5b506101d560048036036101d091908101906119f9565b610d13565b6040516101e29190611d37565b60405180910390f35b3480156101f757600080fd5b50610200610eea565b60405161020d9190611cde565b60405180910390f35b34801561022257600080fd5b5061022b611013565b6040516102389190611cc3565b60405180910390f35b34801561024d57600080fd5b5061026860048036036102639190810190611a3a565b611038565b6040516102759190611d37565b60405180910390f35b6060806060806000806003805490506040519080825280602002602001820160405280156102c057816020015b60608152602001906001900390816102ab5790505b5093506003805490506040519080825280602002602001820160405280156102fc57816020015b60608152602001906001900390816102e75790505b50925060009150600090505b6003805490508110156104d05760038181548110151561032457fe5b90600052602060002090600502016000018054600181600116156101000203166002900480601f0160208091040260200160405190810160405280929190818152602001828054600181600116156101000203166002900480156103c95780601f1061039e576101008083540402835291602001916103c9565b820191906000526020600020905b8154815290600101906020018083116103ac57829003601f168201915b505050505084838151811015156103dc57fe5b906020019060200201819052506003818154811015156103f857fe5b90600052602060002090600502016001018054600181600116156101000203166002900480601f01602080910402602001604051908101604052809291908181526020018280546001816001161561010002031660029004801561049d5780601f106104725761010080835404028352916020019161049d565b820191906000526020600020905b81548152906001019060200180831161048057829003601f168201915b505050505083838151811015156104b057fe5b906020019060200201819052508180600101925050806001019050610308565b838395509550505050509091565b3373ffffffffffffffffffffffffffffffffffffffff168173ffffffffffffffffffffffffffffffffffffffff161415151561051957600080fd5b600260008273ffffffffffffffffffffffffffffffffffffffff1673ffffffffffffffffffffffffffffffffffffffff168152602001908152602001600020600160003373ffffffffffffffffffffffffffffffffffffffff1673ffffffffffffffffffffffffffffffffffffffff16815260200190815260200160002090806001815401808255809150509060018203906000526020600020906002020160009091929091909150600082018160000190805460018160011615610100020316600290046105e99291906116c2565b506001820181600101908054610600929190611749565b5050505050565b60606000809054906101000a900473ffffffffffffffffffffffffffffffffffffffff1673ffffffffffffffffffffffffffffffffffffffff163373ffffffffffffffffffffffffffffffffffffffff1614151561066457600080fd5b600360a06040519081016040528086815260200185815260200184815260200160008152602001600015158152509080600181540180825580915050906001820390600052602060002090600502016000909192909190915060008201518160000190805190602001906106d99291906117b9565b5060208201518160010190805190602001906106f69291906117b9565b50604082015181600201556060820151816003015560808201518160040160006101000a81548160ff0219169083151502179055505050507f130973d222f867ce0ba56247f5740bdd4f4cc047281c3395197edbab007b5147848460405161075f929190611d59565b60405180910390a18390509392505050565b606060008060009150600090505b600380549050811015610b455760038181548110151561079b57fe5b9060005260206000209060050201600001604051602001808280546001816001161561010002031660029004801561080a5780601f106107e857610100808354040283529182019161080a565b820191906000526020600020905b8154815290600101906020018083116107f6575b50509150506040516020818303038152906040526040518082805190602001908083835b602083101515610853578051825260208201915060208101905060208303925061082e565b6001836020036101000a038019825116818451168082178552505050505050905001915050604051809103902060001916846040516020018082805190602001908083835b6020831015156108bd5780518252602082019150602081019050602083039250610898565b6001836020036101000a0380198251168184511680821785525050505050509050019150506040516020818303038152906040526040518082805190602001908083835b6020831015156109265780518252602082019150602081019050602083039250610901565b6001836020036101000a0380198251168184511680821785525050505050509050019150506040518091039020600019161415610b3a5760038181548110151561096c57fe5b906000526020600020906005020160040160009054906101000a900460ff161515610b0257600160003373ffffffffffffffffffffffffffffffffffffffff1673ffffffffffffffffffffffffffffffffffffffff168152602001908152602001600020600101849080600181540180825580915050906001820390600052602060002001600090919290919091509080519060200190610a0e929190611839565b5050600381815481101515610a1f57fe5b906000526020600020906005020160030160008154809291906001019190505550600381815481101515610a4f57fe5b906000526020600020906005020160020154600382815481101515610a7057fe5b9060005260206000209060050201600301541415610ac2576001600382815481101515610a9957fe5b906000526020600020906005020160040160006101000a81548160ff0219169083151502179055505b7ff36e073ee6557003aa9d3b0e015128c61a86d7e168c94aa1acc92f932a404fa084604051610af19190611d37565b60405180910390a160019150610b45565b7f4116eed53c5dbdbaa5ceb05d02a470f96b83428606acdc17b43009818c246f5f84604051610b319190611d37565b60405180910390a15b80600101905061077f565b811515610b87576040517f08c379a0000000000000000000000000000000000000000000000000000000008152600401610b7e90611df1565b60405180910390fd5b8392505050919050565b600381815481101515610ba057fe5b9060005260206000209060050201600091509050806000018054600181600116156101000203166002900480601f016020809104026020016040519081016040528092919081815260200182805460018160011615610100020316600290048015610c4c5780601f10610c2157610100808354040283529160200191610c4c565b820191906000526020600020905b815481529060010190602001808311610c2f57829003601f168201915b505050505090806001018054600181600116156101000203166002900480601f016020809104026020016040519081016040528092919081815260200182805460018160011615610100020316600290048015610cea5780601f10610cbf57610100808354040283529160200191610cea565b820191906000526020600020905b815481529060010190602001808311610ccd57829003601f168201915b5050505050908060020154908060030154908060040160009054906101000a900460ff16905085565b60606000600160003373ffffffffffffffffffffffffffffffffffffffff1673ffffffffffffffffffffffffffffffffffffffff16815260200190815260200160002060000180546001816001161561010002031660029004905011151515610db1576040517f08c379a0000000000000000000000000000000000000000000000000000000008152600401610da890611e11565b60405180910390fd5b81600160003373ffffffffffffffffffffffffffffffffffffffff1673ffffffffffffffffffffffffffffffffffffffff1681526020019081526020016000206000019080519060200190610e07929190611839565b50600160003373ffffffffffffffffffffffffffffffffffffffff1673ffffffffffffffffffffffffffffffffffffffff1681526020019081526020016000206000018054600181600116156101000203166002900480601f016020809104026020016040519081016040528092919081815260200182805460018160011615610100020316600290048015610ede5780601f10610eb357610100808354040283529160200191610ede565b820191906000526020600020905b815481529060010190602001808311610ec157829003601f168201915b50505050509050919050565b6060600160003373ffffffffffffffffffffffffffffffffffffffff1673ffffffffffffffffffffffffffffffffffffffff168152602001908152602001600020600101805480602002602001604051908101604052809291908181526020016000905b8282101561100a578382906000526020600020018054600181600116156101000203166002900480601f016020809104026020016040519081016040528092919081815260200182805460018160011615610100020316600290048015610ff65780601f10610fcb57610100808354040283529160200191610ff6565b820191906000526020600020905b815481529060010190602001808311610fd957829003601f168201915b505050505081526020019060010190610f4e565b50505050905090565b6000809054906101000a900473ffffffffffffffffffffffffffffffffffffffff1681565b6060600080600080925060009150600090505b600260003373ffffffffffffffffffffffffffffffffffffffff1673ffffffffffffffffffffffffffffffffffffffff168152602001908152602001600020805490508110156112b657846040516020018082805190602001908083835b6020831015156110ce57805182526020820191506020810190506020830392506110a9565b6001836020036101000a0380198251168184511680821785525050505050509050019150506040516020818303038152906040526040518082805190602001908083835b6020831015156111375780518252602082019150602081019050602083039250611112565b6001836020036101000a038019825116818451168082178552505050505050905001915050604051809103902060001916600260003373ffffffffffffffffffffffffffffffffffffffff1673ffffffffffffffffffffffffffffffffffffffff168152602001908152602001600020828154811015156111b457fe5b906000526020600020906002020160000160405160200180828054600181600116156101000203166002900480156112235780601f10611201576101008083540402835291820191611223565b820191906000526020600020905b81548152906001019060200180831161120f575b50509150506040516020818303038152906040526040518082805190602001908083835b60208310151561126c5780518252602082019150602081019050602083039250611247565b6001836020036101000a03801982511681845116808217855250505050505090500191505060405180910390206000191614156112ab57600192508091505b80600101905061104b565b8215156112f8576040517f08c379a00000000000000000000000000000000000000000000000000000000081526004016112ef90611df1565b60405180910390fd5b60009250600090505b6003805490508110156116745760038181548110151561131d57fe5b9060005260206000209060050201600001604051602001808280546001816001161561010002031660029004801561138c5780601f1061136a57610100808354040283529182019161138c565b820191906000526020600020905b815481529060010190602001808311611378575b50509150506040516020818303038152906040526040518082805190602001908083835b6020831015156113d557805182526020820191506020810190506020830392506113b0565b6001836020036101000a038019825116818451168082178552505050505050905001915050604051809103902060001916866040516020018082805190602001908083835b60208310151561143f578051825260208201915060208101905060208303925061141a565b6001836020036101000a0380198251168184511680821785525050505050509050019150506040516020818303038152906040526040518082805190602001908083835b6020831015156114a85780518252602082019150602081019050602083039250611483565b6001836020036101000a0380198251168184511680821785525050505050509050019150506040518091039020600019161415611669576003818154811015156114ee57fe5b906000526020600020906005020160040160009054906101000a900460ff16151561166857600260003373ffffffffffffffffffffffffffffffffffffffff1673ffffffffffffffffffffffffffffffffffffffff1681526020019081526020016000208281548110151561155f57fe5b90600052602060002090600202016001018690806001815401808255809150509060018203906000526020600020016000909192909190915090805190602001906115ab929190611839565b50506003818154811015156115bc57fe5b9060005260206000209060050201600301600081548092919060010191905055506003818154811015156115ec57fe5b90600052602060002090600502016002015460038281548110151561160d57fe5b906000526020600020906005020160030154141561165f57600160038281548110151561163657fe5b906000526020600020906005020160040160006101000a81548160ff0219169083151502179055505b60019250611674565b5b806001019050611301565b8215156116b6576040517f08c379a00000000000000000000000000000000000000000000000000000000081526004016116ad90611df1565b60405180910390fd5b85935050505092915050565b828054600181600116156101000203166002900490600052602060002090601f016020900481019282601f106116fb5780548555611738565b8280016001018555821561173857600052602060002091601f016020900482015b8281111561173757825482559160010191906001019061171c565b5b50905061174591906118b9565b5090565b8280548282559060005260206000209081019282156117a85760005260206000209182015b828111156117a757828290805460018160011615610100020316600290046117979291906116c2565b509160010191906001019061176e565b5b5090506117b591906118de565b5090565b828054600181600116156101000203166002900490600052602060002090601f016020900481019282601f106117fa57805160ff1916838001178555611828565b82800160010185558215611828579182015b8281111561182757825182559160200191906001019061180c565b5b50905061183591906118b9565b5090565b828054600181600116156101000203166002900490600052602060002090601f016020900481019282601f1061187a57805160ff19168380011785556118a8565b828001600101855582156118a8579182015b828111156118a757825182559160200191906001019061188c565b5b5090506118b591906118b9565b5090565b6118db91905b808211156118d75760008160009055506001016118bf565b5090565b90565b61190791905b8082111561190357600081816118fa919061190a565b506001016118e4565b5090565b90565b50805460018160011615610100020316600290046000825580601f10611930575061194f565b601f01602090049060005260206000209081019061194e91906118b9565b5b50565b600061195e8235611efb565b905092915050565b600082601f830112151561197957600080fd5b813561198c61198782611e5e565b611e31565b915080825260208301602083018583830111156119a857600080fd5b6119b3838284611f25565b50505092915050565b60006119c88235611f1b565b905092915050565b6000602082840312156119e257600080fd5b60006119f084828501611952565b91505092915050565b600060208284031215611a0b57600080fd5b600082013567ffffffffffffffff811115611a2557600080fd5b611a3184828501611966565b91505092915050565b60008060408385031215611a4d57600080fd5b600083013567ffffffffffffffff811115611a6757600080fd5b611a7385828601611966565b925050602083013567ffffffffffffffff811115611a9057600080fd5b611a9c85828601611966565b9150509250929050565b600080600060608486031215611abb57600080fd5b600084013567ffffffffffffffff811115611ad557600080fd5b611ae186828701611966565b935050602084013567ffffffffffffffff811115611afe57600080fd5b611b0a86828701611966565b9250506040611b1b868287016119bc565b9150509250925092565b600060208284031215611b3757600080fd5b6000611b45848285016119bc565b91505092915050565b611b5781611ec5565b82525050565b6000611b6882611e97565b80845260208401935083602082028501611b8185611e8a565b60005b84811015611bba578383038852611b9c838351611c10565b9250611ba782611eb8565b9150602088019750600181019050611b84565b508196508694505050505092915050565b611bd481611ee5565b82525050565b6000611be582611ead565b808452611bf9816020860160208601611f34565b611c0281611f67565b602085010191505092915050565b6000611c1b82611ea2565b808452611c2f816020860160208601611f34565b611c3881611f67565b602085010191505092915050565b6000600e82527f6661696c20746f20656e726f6c6c0000000000000000000000000000000000006020830152604082019050919050565b6000600c82527f55736572206578697374732e00000000000000000000000000000000000000006020830152604082019050919050565b611cbd81611ef1565b82525050565b6000602082019050611cd86000830184611b4e565b92915050565b60006020820190508181036000830152611cf88184611b5d565b905092915050565b60006040820190508181036000830152611d1a8185611b5d565b90508181036020830152611d2e8184611b5d565b90509392505050565b60006020820190508181036000830152611d518184611bda565b905092915050565b60006040820190508181036000830152611d738185611bda565b90508181036020830152611d878184611bda565b90509392505050565b600060a0820190508181036000830152611daa8188611c10565b90508181036020830152611dbe8187611c10565b9050611dcd6040830186611cb4565b611dda6060830185611cb4565b611de76080830184611bcb565b9695505050505050565b60006020820190508181036000830152611e0a81611c46565b9050919050565b60006020820190508181036000830152611e2a81611c7d565b9050919050565b6000604051905081810181811067ffffffffffffffff82111715611e5457600080fd5b8060405250919050565b600067ffffffffffffffff821115611e7557600080fd5b601f19601f8301169050602081019050919050565b6000602082019050919050565b600081519050919050565b600081519050919050565b600081519050919050565b6000602082019050919050565b600073ffffffffffffffffffffffffffffffffffffffff82169050919050565b60008115159050919050565b6000819050919050565b600073ffffffffffffffffffffffffffffffffffffffff82169050919050565b6000819050919050565b82818337600083830152505050565b60005b83811015611f52578082015181840152602081019050611f37565b83811115611f61576000848401525b50505050565b6000601f19601f83011690509190505600a265627a7a723058208ce3f081f762992b6892e19bcabff95e4e38d947ab7a472ef9774655e62ac49a6c6578706572696d656e74616cf50037",
  "source": "pragma solidity >=0.4.22 <0.9.0;\npragma experimental ABIEncoderV2;\n\ncontract Enrollment {\n    address public administrator;\n    struct Conference {\n        string title;\n        string detail;\n        uint limitation;\n        uint current;\n        bool isFull;\n    }\n    struct Participant {\n        string username;\n        string[] myconferences;\n    }\n    // address  \n    mapping(address => Participant) participants;\n    // address  \n    mapping(address => Participant[]) trustees;\n    Conference[] public conferences;\n\n    constructor() public {\n        administrator = msg.sender;\n    }\n\n    modifier onlyOwner(){\n        require(msg.sender == administrator);\n        _;\n    }\n\n    event NewConference(string,string);\n    event ConferenceExpire(string);\n    event MyNewConference(string);\n\n    function signUp(string _username) public returns(string){\n        require(bytes(participants[msg.sender].username).length<=0,\"User exists.\");\n        participants[msg.sender].username = _username;\n        return participants[msg.sender].username;\n    }\n\n    function delegate(address trustee) public {\n        require(trustee != msg.sender);\n        trustees[trustee].push(participants[msg.sender]);\n    }\n\n\n    function enroll(string _title) public returns(string){\n        bool finded = false;\n        for(uint i = 0; i < conferences.length; ++i){\n            if(keccak256(abi.encodePacked(_title)) == keccak256(abi.encodePacked(conferences[i].title))){\n                if(!conferences[i].isFull){\n                    participants[msg.sender].myconferences.push(_title);\n                    conferences[i].current++;\n                    if(conferences[i].current == conferences[i].limitation){\n                        conferences[i].isFull = true;\n                    }\n                    emit MyNewConference(_title);\n                    finded = true;\n                    break;\n                }\n                emit ConferenceExpire(_title);\n            }\n        }\n        if(!finded){\n            revert('fail to enroll');\n        }\n        return _title;\n    }\n\n    function enrollFor(string _title, string _username) public returns(string){\n        bool finded = false;\n        uint userId = 0;\n        for(uint i = 0; i < trustees[msg.sender].length; ++i){\n            if(keccak256(abi.encodePacked(trustees[msg.sender][i].username))==keccak256(abi.encodePacked(_username))){\n                finded = true;\n                userId = i;\n            }\n        }\n        if(!finded){\n            revert('fail to enroll');\n        }\n        finded = false;\n        for(i = 0; i < conferences.length; ++i){\n            if(keccak256(abi.encodePacked(_title)) == keccak256(abi.encodePacked(conferences[i].title))){\n                if(!conferences[i].isFull){\n                    trustees[msg.sender][userId].myconferences.push(_title);\n                    conferences[i].current++;\n                    if(conferences[i].current == conferences[i].limitation){\n                        conferences[i].isFull = true;\n                    }\n                    finded = true;\n                    break;\n                }\n            }\n        }\n        if(!finded){\n            revert('fail to enroll');\n        }\n        return _title;\n    }\n\n    function newConference(string _title, string _detail,uint _limitation) public onlyOwner returns(string){\n        conferences.push(Conference(_title, _detail,_limitation, 0,false));\n        emit NewConference(_title,_detail);\n        return _title;\n    }\n\n    function queryConfList()  public view returns(string[], string[]) {\n        string[] memory title = new string[](conferences.length);\n        string[] memory detail = new string[](conferences.length);\n        uint count = 0;\n        for(uint i = 0; i < conferences.length; ++i){\n            title[count] = conferences[i].title;\n            detail[count] = conferences[i].detail;\n            count++;\n        }\n        return (title, detail);\n    }\n\n    function queryMyConf() public view returns(string[]) {\n        return participants[msg.sender].myconferences;\n    }\n\n    function destruct() private onlyOwner{\n        selfdestruct(administrator);\n    }\n\n    \n}",
  "sourcePath": "/home/samrito/Documents/GO/BlockChain/Lab6/lab8/contracts/Enrollment.sol",
  "compiler": {
    "name": "solc",
    "version": "0.4.26+commit.4563c3fc.Emscripten.clang"
  },
  "schemaVersion": "3.4.3",
  "updatedAt": "2021-11-23T11:44:46.275Z",
  "networkType": "ethereum",
  "devdoc": {
    "methods": {}
  },
  "userdoc": {
    "methods": {}
  }
}